:100000000C94EC060C9400000C9400000C9400007E
:100010000C9400000C9400000C9400000C94000060
:100020000C9400000C9400000C9400000C94000050
:100030000C9400000C9400000C9400000C94000040
:100040000C9400000C9400000C9400000C94000030
:040050000C9400000C
:100DD800BFE5BDBFB4E0BEBF0E94E3072F923F92BC
:100DE8004F925F926F927F928F929F92B0E0BABBC0
:100DF800BFEFB7BBBFEFB4BBB0E0B1BB4EDE58DE50
:100E0800B3E3B9B9B0E0B0BDEADD18E605EE0A957E
:100E1800F1F71A95E1F728DEB0E0B093CC00B09373
:100E2800CD0018E605EE0A95F1F71A95E1F7B0E05E
:100E3800B093D200FDDD83DD0093D5001093D6007A
:100E480005DE7DDD0093CE001093CF009BDF77DDBC
:100E58000093B4001093B500A8DF71DD0093BA00C9
:100E68001093BB0023E018E008E70A95F1F71A95FC
:100E7800E1F72A95D1F72091D5003091D60008EEF8
:100E880013E02017310754F42091B4003091B500D5
:100E980000E117E2201731070CF407C05ADFB2E06F
:100EA800B093CC00B0E0B093CD002091D500309144
:100EB800D6000EE110E0201731070CF016DE209165
:100EC800D5003091D6000EE110E0201731074CF51F
:100ED8002091B4003091B50004E115E020173107E6
:100EE8000CF0B5DE34DC0093B8001093B90018019B
:100EF800FFDB0093B6001093B7002091B400309147
:100F0800B500201731076CF400917D00013049F4D9
:100F1800ABDDB0E0B093CC00B093CD00B0E0B093BF
:100F28007D008090BA009090BB006090B4007090F3
:100F3800B5004090CE005090CF002090D500309062
:100F4800D60029DC29E216E900E80A95F1F71A9596
:100F5800E1F72A95D1F76ECF9F908F907F906F9091
:0A0F68005F904F903F902F90FFCF55
:100AA200BFE5B093C400B3E0B093C500B7E8B6B9F0
:060AB200B0E0B7B90895A1
:100AB8002F92BFEFB4BBBFEFB7BB10ED0AEC0A959E
:100AC800F1F71A95E1F70000B8E32B2E20DFBCE020
:100AD8002B2E1DDFB6E02B2E1ADFB1E02B2E17DFF1
:0A0AE800B0E82B2E14DF2F900895C4
:1009160028BA05B30E7F05BB0D7F05BB046005BB7A
:1009260002E00A95F1F700000000B5B3BB7FB5BB46
:1009360010E20AE20A95F1F71A95E1F70000089528
:00094600B1
:100A70002F923F9247DF18E605EE0A95F1F71A9597
:100A8000E1F7BAE62B2EB0E03B2E81DFB0EC2B2E47
:100A900042DFBEE72B2EB0E03B2E79DF3F902F9058
:020AA0000895B7
:100904002F92B1E02B2E05D0B0E82B2E02D02F90E1
:02091400089544
:10098E0020E030E0F901E20DF31D0081003099F016
:10099E00F901E20DF31D00813F932F933F922F92A9
:1009AE00202E9FDC2F903F902F913F9189010F5F5A
:0809BE001F4F9801E7CF0895D7
:1002F00028BA05B3016005BB0D7F05BB046005BBD3
:1003000002E00A95F1F700000000B5B3BB7FB5BB72
:0E0310001BE003E60A95F1F71A95E1F7089550
:100A38002F92B2E02B2ED0DF20E0322FCADF40E029
:0C0A480050E06AEF7EE3BBDF2F900895C2
:0609E00060D06DDE0895F9
:1006BE0007B1007E022907B9B6B1B064B6B9B6B1BA
:1006CE00B6FF01C0FCCF24B130E005B1102F0027DA
:0606DE00022B132B08950E
:0609DA00689483DE08951D
:1006E40047E16627552726F0332312F43ADD60E804
:0406F40041DD089547
:1001660000951095209530950F5F1F4F2F4F3F4FED
:020176000895EA
:10017800DDDF11F19F938F938EE790E0332351F0E9
:10018800369527951795079548175907B4F44F5F83
:100198005F4FF4CF80959095019622239AF0000F37
:1001A800111F221F481759071CF041505040F5CF26
:1001B800002711272227332708C033270FEF102FD6
:0C01C8002FE7322F8F919F91B9DF08952F
:10013400002329F4112319F4222309F43323089505
:00014400BB
:10014400F7DF39F041585F4F342F220F369527954A
:04015400362B0895A9
:1009C600042E152E262E372E46DC002E112E222E14
:0409D600332E08951F
:10025C00DEDF81F1E62ED52EC42EB32EA22E912EEA
:10026C00802E002D112D222D332DD1DF19F16E256D
:10027C004C0D5D1D40385307F4F441387FEF5707A0
:10028C00FCF088279927AA27BB2770E2B695A7957B
:10029C0097958795379527951795079520F4880D91
:1002AC00991DAA1DBB1D7A9589F7032F3A2F292F6B
:1002BC00182F5CDF0AC00FEF102F2FE73FE7FACFA4
:0C02CC000027102F202F302FF5CF0895B1
:10021A008CDF79F0632F6078220F331F432F5FE75B
:10022A00451B55275040269530E8232B33279894B1
:0A023A0003C04427552766270895E6
:100A54002F92B1E02B2EC2DF20E0322FBCDF40E02A
:0C0A640050E06AEF7EE3ADDF2F900895B4
:100D8C002F92B4E02B2E26DE20E0322F20DE40E026
:100D9C0050E06AEF7EE311DE40E050E068EC72E474
:060DAC000CDE2F900895FB
:100DB2002F92B3E02B2E13DE20E0322F0DDE40E027
:100DC20050E06AEF7EE3FEDD40E050E068EC72E462
:060DD200F9DD2F900895E9
:100D5A002F923F92D2DD18E605EE0A95F1F71A9521
:100D6A00E1F7BDE82B2EB0E03B2E0CDEB0EC2B2ECB
:100D7A00CDDDB0EA2B2EB0E03B2E04DE3F902F9063
:020D8A000895CA
:100AF2000090CE001090CF002091D5003091D6000A
:100B0200201931090AE010E0201731070CF44AC01D
:100B12000091CC001091CD00103009F4003039F46E
:100B2200D7DEB1E0B093CC00B0E0B093CD0000913D
:100B3200CC001091CD00103009F4013099F50091EC
:100B4200D200003059F40091D5001091D6000093E4
:100B5200D0001093D100B1E0B093D2000090D00049
:100B62001090D1002091D5003091D6002019310982
:100B720004E110E002171307ACF4EED0B2E0B09338
:100B8200CC00B0E0B093CD00B0E0B093D000B09311
:100B9200D100B0E0B093D20015E107EC0A95F1F76D
:100BA2001A95E1F70090D5001090D6002091CE0062
:100BB2003091CF00201931090AE010E020173107E7
:100BC2000CF447C00091CC001091CD00103009F414
:100BD200013031F44CDFB0E0B093CC00B093CD00E3
:100BE2000091CC001091CD00103009F4003089F54D
:100BF2000091D200003069F40091D5001091D60026
:100C02000093D0001093D1000091D2000095009380
:100C1200D2000090D0001090D1002091D5003091E8
:100C2200D6002019310904E110E0021713078CF4F1
:100C320093D0B0E0B093D000B093D1000091D20035
:100C420000950093D200B2E0B093CC00B0E0B09334
:040C5200CD00089534
:1008D2002F923F9216D018E605EE0A95F1F71A9577
:1008E200E1F7B0E62B2EB0E03B2E50D0B0EC2B2E31
:1008F20011D0B8E72B2EB0E03B2E48D03F902F907E
:02090200089556
:100C56002F923F924F925F926F927F928F929F92C6
:100C66000091CC001091CD00103009F40030F1F461
:100C76002DDEB1E0B093CC00B0E0B093CD0068DDDE
:100C86000093B8001093B90018E605EE0A95F1F73F
:100C96001A95E1F72090B8003090B9002ADD00934C
:100CA600B6001093B700B1E0B0937D000091CC0080
:100CB6001091CD00103009F4013009F042C00091C6
:100CC6007D00003009F03DC02091BA003091BB0094
:100CD60000ED17E020173107A4F1C7DEB0E0B093AE
:100CE600CC00B093CD002091BA003091BB0004E156
:100CF60015E002171307F4F459D022DE0093BA0068
:100D06001093BB0048016090B4007090B50040900D
:100D1600CE005090CF002090D5003090D6003CDD1C
:100D260029E216E900E80A95F1F71A95E1F72A95FE
:100D3600D1F7D9CFCBDDB1E0B093CC00B0E0B09322
:100D4600CD009F908F907F906F905F904F903F90D7
:040D56002F9008953D
:1007560021E030E0B0B3B2FF05C089010F5F1F4F43
:10076600980100C0B0B3B3FF05C089010F5F1F4FEA
:10077600980100C0B0B3B4FF05C089010F5F1F4FD9
:10078600980100C0B0B3B5FF05C089010F5F1F4FC8
:08079600980100C089010895DB
:1006F8000FC006E212E02AC00CEB12E027C002E5A8
:1007080013E024C008EE13E021C00EE714E01EC079
:10071800B0E03B1611F4B1E02B1659F3B0E03B16EC
:1007280011F4B2E02B1641F3B0E03B1611F4B3E03C
:100738002B1629F3B0E03B1611F4B4E02B1611F395
:0E074800B0E03B1611F4B5E02B16F9F208955F
:10079E002F923F924F925F926F927F9218E605EEE4
:1007AE000A95F1F71A95E1F73F922F92BDE02B2EA5
:1007BE008CDD2F903F90810120E037FC2FEF322F00
:1007CE005DDF9F928F927F926F925F924F92BAEC03
:1007DE006B2EB0E07B2E180129019ADD4F905F90B1
:1007EE006F907F908F909F90B4EA2B2EB0E03B2EAF
:1007FE0048DFBAEC2B2EB0E03B2E43DFBDE02B2EB4
:10080E0064DD820120E057FC2FEF322F37DF9F92FD
:10081E008F927F926F92B8EC6B2EB0E07B2E180108
:10082E00290176DD6F907F908F909F90B8E92B2EE7
:10083E00B0E03B2E26DFB8EC2B2EB0E03B2E21DFB6
:10084E00BDE02B2E42DD830120E077FC2FEF322F0F
:10085E0015DF9F928F92B6EC6B2EB0E07B2E1801B7
:10086E00290156DD8F909F90B0E92B2EB0E03B2EE4
:10087E0008DFB6EC2B2EB0E03B2E03DFBDE02B2EB7
:10088E0024DD840120E097FC2FEF322FF7DEB3ED4D
:10089E006B2EB0E07B2E180129013ADDBBEA2B2E20
:1008AE00B0E03B2EEEDEB3ED2B2EB0E03B2EE9DEBC
:1008BE00BDE02B2E0ADD7F906F905F904F903F90A2
:0408CE002F900895CA
:1002D800BBB1B5FD01C0FCCFBBB1B6FF03C0BBB11C
:0802E800B064BBB92CB8089505
:10031E00CF93DF93CDB7DEB72697CDBFDEBF219645
:10032E002F923F924F925F92B0E0BC83B0E0BD83BC
:10033E00288239824A825B82088119812A813B8117
:10034E003F3F29F42F3F19F41F3F09F40F3F41F4AB
:10035E00B3E84B2EB0E05B2E13013CDF03E084C10B
:10036E0061E08E01F8013396008107FF16C08E0101
:10037E0098012D5F3F4FF9010081B0E80B27F9017D
:10038E000083062F0F5F202FF301BDE2B0838301A0
:10039E000F5F1F4F3801422F01C0462F0881198170
:1003AE002A813B81303029F4203019F4103009F4C1
:1003BE00003041F4BBE84B2EB0E05B2E13010ADF98
:1003CE0000E052C1088119812A813B813F3729F40F
:1003DE00203819F4103009F4003051F44F93B7E877
:1003EE004B2EB0E05B2E1301F5DE4F91042F3CC176
:1003FE005F924F923F922F9240E050E060E87FE391
:10040E00088119812A813B81FADE002800E009F07B
:10041E0001E02F903F904F905F900023C9F05F92C4
:10042E004F923F922F92088119812A813B8140E0A1
:10043E0050E060E271E4C0D22F903F904F905F90F9
:10044E00088319832A833B830D8101500D83D0CFFE
:10045E005F924F923F922F9240E050E060E271E443
:10046E00088119812A813B81AEDE002800E009F067
:10047E0001E02F903F904F905F900023C9F05F9264
:10048E004F923F922F92088119812A813B814DEC28
:10049E005CEC6CEC7DE390D22F903F904F905F9090
:1004AE00088319832A833B830D810F5F0D83D0CF81
:1004BE00088119812A813B81000F111F221F331FD2
:1004CE00088319832A833B838E01F80133960081BA
:1004DE000F57402F8E01F8013396B1E0B08308819B
:1004EE0019812A813B81B42FBB2331F0000F111FDC
:1004FE00221F331FBA95D1F7088319832A833B83B2
:10050E008E01F80133960081005DF30100838301B3
:10051E000F5F1F4F38010D8101302CF01D8106E059
:10052E0001170CF009C0F301BEE2B08383010F5F27
:10053E001F4F3801B1E0BC8386E0803009F44BC018
:10054E008E01F8013396B0E0B083088119812A81BB
:10055E003B81A801B901440F551F661F771F440F39
:10056E00551F661F771F088119812A813B81040F51
:10057E00151F261F371F088319832A833B83088183
:10058E0019812A813B81000F111F221F331F0883FF
:10059E0019832A833B838E01F80133960081005D17
:1005AE00F301008383010F5F1F4F38010C81003070
:1005BE0071F40D8101500D83003049F4F301BEE258
:1005CE00B08383010F5F1F4F3801B1E0BC83082F4A
:1005DE000150802FB2CFF30131970081003329F4FF
:1005EE008301015010403801F6CFF301319700819D
:1005FE000E3221F483010150104038010D8100307C
:10060E0079F1F301B5E6B08383010F5F1F4F380117
:10061E000D8100305CF4F301BDE2B08383010F5F06
:10062E001F4F38010D8000E000190D832D811D81B3
:10063E0009E0011750F4022F4AE0FDDD005DF301E1
:10064E00008383010F5F1F4F3801022F4AE0F3DD55
:10065E00092F005DF301008383010F5F1F4F3801E7
:10066E00F301B0E0B08300E05F904F903F902F9089
:0C067E002596CDBFDEBFDF91CF9108951F
:1001E200A1019A018A010F5F1F4FA801F20182014A
:1001F2000F5F1F4F28010081F9010083F90100817F
:0A020200002309F0EECF81010895FA
:0E020C00A5DF1CF40024039401C00024089513
:0E015800042E152E262E372EDEDF00230895EE
:10011E00FCDF332332F007D011F001E003C00027DB
:06012E0001C00FEF08956F
:060118006894A3DF0895C6
:10006200F8DF09F441C0E62ED52EC42EB32EA22EFF
:10007200912E802E002D112D222D332DEADF09F431
:100082003DC0842F952F8C199D09B9F072F490957B
:10009200809501964C2D5D2D883180F535952795FB
:1000A200179507950197D1F708C08831E8F4B59400
:1000B200A794979487940197D1F766272EF0080D9D
:1000C200191D2A1D3B1D09C0801A910AA20AB30AF2
:1000D200082D192D2A2D3B2D332312F443D060E82D
:1000E2004AD001C02ED016C0002D112D222D332D45
:1000F200D6F71FD0C1F340E83427F5CF082D192DCC
:100102002A2D3B2D4C2D5D2D6E2D33235AF72AD0EF
:0601120060E8E8CF08954B
:0E005400E2D021F0662309F084D0989408953C
:0E01D400C1DF1CF00024039401C00024089534
:10024400992779E004C0991F941708F0941B001FA4
:080254007A95C9F700950895A1
:1006900010E0F1010081202F022F003079F03F920D
:1006A0002F92202E19DE2F903F90012F0F5F102FD9
:0E06B000E02FF0E0E20DF31D0081EFCF089582
:06068A00E8942BD0089556
:1009460069DCF1F05523C2F04F31A8F44731C1F00C
:1009560050F44195495E05C035952795179507953D
:100966004A95D1F70DC04751000F111F221F331FA3
:100976004A95D1F705C03FE7232F132F032F03C056
:08098600662309F0EDDB089582
:0A0A2E0005900D920197E1F708957D
:1009E600BCE6B093BE00B1E0B093BF00BFEFB093DA
:1009F600BC00BFEFB093BD00BFEFB093C200BFEF26
:100A0600B093C300BFEFB093C000BFEFB093C10077
:100A1600B1B3BE7FB1BBB1B3B260B1BB0AB10861BD
:080A26000AB9B6E8B0BD08955D
:100FC600A0E6B0E0E2E7FFE084E590E00E941705C6
:020FD60008957C
:0A0F72004672657368204169720041
:0E0F7C00526563697263756C6174696F6E0013
:050F8A004D6F646500DD
:010F8F000061
:050F90004D6F646500D7
:040F95004E614E005B
:040F9900494E460077
:020F9D00300022
:030F9F00414300CB
:080FA200434F325F696E3A0013
:080FAA00434F5F6F75743A00BC
:040FB2006F66660000
:070FB600434F5F696E3A0032
:090FBD00434F325F6F75743A0076
:00000001FF
